S00E00007468696E31382E73726563FA
S1130000B80900203D090000D1090000D109000011
S113001000000000000000000000000000000000DC
S1130020000000000000000000000000D1090000F2
S11300300000000000000000D1090000D109000008
S1130040D1090000D1090000D1090000D109000044
S1130050D1090000D1090000D1090000D109000034
S1130060D109000059050000D1090000D1090000A0
S1130070D1090000090B0000790C0000D10900002F
S1130080D1090000D1090000D109000000000000DE
S113009000000000D1090000D1090000D1090000CE
S11300A0D109000010B5064C2378002B07D1054B6D
S11300B0002B02D0044800E000BF0123237010BDD0
S11300C03004002000000000C426000008B5084BDE
S11300D0002B03D00748084900E000BF0748036825
S11300E0002B00D108BD064B002BFBD09847F9E745
S11300F000000000C426000034040020C4260000D0
S11301000000000080B582B000AF3D4B9B7B012214
S11301101340DBB2002B07D03A4B8022D2001A8066
S1130120374B01229A730BE0364B1B889BB2002B92
S113013006D0344B1B889BB2013B9AB2314B1A80D8
S1130140304B1B889BB2002B06D12D4B28229A736F
S11301502D4B00221A7050E0294B9B7BDBB25B09CC
S11301601A1C01231340DBB2002B05D0244B274A71
S11301705A80234B20229A73214B9B7BDBB2DB08F2
S11301801A1C01231340DBB2002B36D01C4BDB6955
S11301907B601B4B08229A731B4B1B78DBB2002B32
S11301A025D01B4B1B687A68D31A1B021B0A3B60C1
S11301B0184B1B889BB21A1C174B1B889BB2D31A73
S11301C003221340012B15D0134B1B889BB21A1C1E
S11301D0124B92003968D1500F4B1B889BB20133EC
S11301E09BB2032213409AB20B4B1A8002E0064BD7
S11301F001221A70064B7A681A60BD4602B080BDAF
S11302000028004252040020680400201C80FFFFE4
S11302104C04002050040020540400205804002002
S113022080B500AF044B1B889BB25A1E9341DBB2CE
S1130230181CBD4680BDC0465204002080B582B063
S113024000AF7860104B1B889AB2104B1B889BB28E
S11302509A4201D1002313E00B4B1B889BB21A1C5A
S11302600B4B9200D2587B681A60074B1B889BB2D9
S113027001339BB2032213409AB2034B1A80012329
S1130280181CBD4602B080BD500400205404002058
S11302905804002080B500AF4F4A3A23D15C0F20A8
S11302A00140D1544C4A5523D15C01200143D1541F
S11302B04A4B4A4A926940210A439A61484B494A47
S11302C05A80494B9A6949490A409A61464B9A694E
S11302D047490A408021C9030A439A61424B5A683C
S11302E020210A435A60404B02221A703B4B3B4A7E
S11302F0126A02210A431A62394B3E4A5A803E4B23
S11303003E4A5A603C4B812252001A81344B3C4A8B
S11303105A80324B314A126AC02109010A431A62D7
S1130320384B394A1A80C046364BDB7BDBB2DB09DB
S1130330DBB2002BF8D1334B344A9A61C046314BBF
S1130340DB7BDBB2DB09DBB2002BF8D12D4B0022C7
S11303501A61C0462B4BDB7BDBB2DB09DBB2002B23
S1130360F8D1284B05221A71C046264BDB7BDBB241
S1130370DB09DBB2002BF8D1224B20229A71C04654
S1130380204BDB7BDBB2DB09DBB2002BF8D11D4B4E
S113039020225A81C0461B4BDB7BDBB2DB09DBB27C
S11303A0002BF8D1174B29229A73C046154BDB7BDF
S11303B0DBB2DB09DBB2002BF8D1124B1A88022125
S11303C00A431A80C0460F4BDB7BDBB2DB09DBB28E
S11303D0002BF8D1BD4680BD00440041000400401C
S11303E0000C00400340000000180040FFFF7FFFA6
S11303F0FFFF8FFF044100000004004200001109C8
S1130400144000000028004228080000FFFFFF00FD
S113041080B582B000AF021CFB1D1A70FB1D1B7857
S1130420002B06D0074B084A5A80064B074A5A80CD
S113043005E0044B064A5A80024B064A5A80BD46E0
S113044002B080BD000C00401441000004410000D3
S1130450144000000440000080B582B000AF021CCC
S1130460FB1D1A70064BFA1D1278111C1F220A403C
S1130470012191400A1C1A60BD4602B080BDC046ED
S113048000E100E0B0B582B000AF021C3960FB1D92
S11304901A70FB1D1B787F2B2FD92D4CFB1D1B784D
S11304A01A1C0F231340083B9908294AFB1D1B788B
S11304B0181C0F230340083B9B0806339B00D318EA
S11304C05B68FA1D1278101C03220240D200101C33
S11304D0FF228240D2431A403B689B01FF20034025
S11304E0F81D0078051C03202840C00083401A43EF
S11304F08B1D9B00E3185A6026E0164CFB1D1B78ED
S11305005BB29B081349FA1D127852B29208C032AA
S113051092005258F91D0978081C03210140C900B2
S1130520081CFF218140C94311403A689201FF2011
S11305300240F81D0078051C03202840C0008240BA
S11305400A43C0339B001A51BD4602B0B0BDC04639
S113055000ED00E000E100E080B582B000AF304B78
S11305609B7B01221340DBB2002B26D02D4B1B8832
S11305709AB22D4B1B889BB29A4213D02849294B1F
S11305801B889BB21A1C294B5200D35A9BB20B8373
S1130590244B1B889BB201339BB23F2213409AB277
S11305A0204B1A801F4B1B889AB21F4B1B889BB28F
S11305B09A4202D11A4B01221A73194B9B7BDBB26C
S11305C09B081A1C01231340DBB2002B24D0144BCC
S11305D01B8B9AB2FB1D1A70154B1B889BB21A1CFD
S11305E0144B1B889BB2D31A3F221340012B13D008
S11305F0104B1B889BB21A1CFB1D1B7899B20E4B27
S11306005200D1520B4B1B889BB201339BB23F2249
S113061013409AB2074B1A80BD4602B080BDC04653
S1130620001000426C0500206E050020EC04002040
S113063072050020700500206C04002080B500AF16
S11306402B4B00221A802B4B00221A802A4B0022AB
S11306501A802A4B00221A80294A3723D15C0F20A2
S11306600140081C20210143D154254A3723D15C81
S11306700F208143081C02210143D154204A4E23F8
S1130680D15C01200143D1541D4A4F23D15C012088
S11306900143D1541B4B1C4A5A801A4B1B4A5A80A3
S11306A01B4B1B4A126A10210A431A62194B1A681F
S11306B002218A431A60174B174A1A60154B174ACE
S11306C05A81144BC02292025A60124B5A7B042165
S11306D00A435A730F4B1A6802210A431A6009200D
S11306E001210F4B984709200E4B9847BD4680BD0A
S11306F06C0500206E0500207205002070050020A6
S113070000440041000C00400F4000000C42000077
S113071000040040001000420400314082E2FFFF68
S1130720850400005904000080B582B000AF7860F1
S1130730114B1B889AB2114B1B889BB29A4216D05C
S11307400D4B1B889BB21A1C0D4B5200D35A9BB203
S1130750DAB27B681A70084B1B889BB201339BB2D8
S11307603F2213409AB2044B1A80012300E0002375
S1130770181CBD4602B080BD720500207005002023
S11307806C04002080B582B000AF021CFB1D1A70FF
S1130790C046134B1B889BB21A1C124B1B889BB27E
S11307A0D31A3F221340012BF3D00E4B1B889BB26C
S11307B01A1CFB1D1B7899B20B4B5200D152094BEA
S11307C01B889BB201339BB23F2213409AB2054B64
S11307D01A80064B01225A73BD4602B080BDC04642
S11307E06C0500206E050020EC040020001000427F
S11307F080B582B000AF786007E07B681B78181C76
S1130800054B98477B6801337B607B681B78002B22
S1130810F3D1BD4602B080BD8507000080B584B029
S113082000AF78600A1CBB1C1A800E23FB18002240
S11308301A80BB1C1B88002B01D1002367E0BB1C62
S11308401A88BB1C013A1A80C0460D23FB18181CD9
S1130850314B9847031C1A1C01235340DBB2002B75
S1130860F3D10D23FB181B780D2B04D00D23FB189B
S11308701B780A2B06D17B6800221A700E23FB1802
S11308801B8844E00D23FB181B787F2B04D00D2319
S1130890FB181B78082B1BD10E23FB181B88002B7D
S11308A015D00E23FB181A880E23FB18013A1A8060
S11308B07B68013B7B60BB1C1A88BB1C01321A801D
S11308C00D23FB181B78181C144B98471EE01DE0E1
S11308D0BB1C1B88002B19D0BB1C1A88BB1C013AFB
S11308E01A800D23FB181A787B681A707B68013311
S11308F07B600E23FB181A880E23FB1801321A8022
S11309000D23FB181B78181C044B98479CE7181CF4
S1130910BD4604B080BDC04629070000850700001D
S11309200449484304494843003801D00138FDD103
S113093070470000E80300000200000080B582B0A8
S113094000AF194B7B60194B3B607A683B689A4255
S11309500CD007E03B681A1D3A607A68111D796073
S113096012681A603A68124B9A42F3D3114B3B60F7
S113097004E03B681A1D3A6000221A603A680E4B84
S11309809A42F6D30D4B7B600D4B7A68FF218A4364
S11309909A600C4B5A6880210A435A600A4B984764
S11309A00A4B9847FEE7C046C4260000000000201A
S11309B03004002030040020B805002000000000AE
S11309C000ED00E000400041951A000069110000AC
S11309D080B500AFFEE7C04680B582B000AF021C10
S11309E0FB1D1A70064BFA1D1278111C1F220A40B7
S11309F0012191400A1C1A60BD4602B080BDC04668
S1130A0000E100E080B582B000AF021CFB1D1A704B
S1130A10074AFB1D1B78191C1F230B400121994019
S1130A200B1C191C80235B00D150BD4602B080BD55
S1130A3000E100E0B0B582B000AF021C3960FB1DDC
S1130A401A70FB1D1B787F2B2FD92D4CFB1D1B7897
S1130A501A1C0F231340083B9908294AFB1D1B78D5
S1130A60181C0F230340083B9B0806339B00D31834
S1130A705B68FA1D1278101C03220240D200101C7D
S1130A80FF228240D2431A403B689B01FF2003406F
S1130A90F81D0078051C03202840C00083401A4339
S1130AA08B1D9B00E3185A6026E0164CFB1D1B7837
S1130AB05BB29B081349FA1D127852B29208C032F5
S1130AC092005258F91D0978081C03210140C900FD
S1130AD0081CFF218140C94311403A689201FF205C
S1130AE00240F81D0078051C03202840C000824005
S1130AF00A43C0339B001A51BD4602B0B0BDC04684
S1130B0000ED00E000E100E080B500AF514B9B7BBD
S1130B1001221340DBB2002B0CD04F4BD822120120
S1130B205A614E4B1B790133DAB24C4B1A71494B63
S1130B3001229A73474B9B7BDBB21B091A1C0123CE
S1130B401340DBB2002B68D0434B454A5A614249FB
S1130B509422C0231B018B50404B1B791A1C032386
S1130B601340012B1AD002DC002B05D052E0022BDB
S1130B7028D0032B3AD04DE0374B384AD279111C98
S1130B80384A89008A589A613349344BDB791A1CF4
S1130B90354B9200D35898228B503BE02E4B2F4A72
S1130BA0127A111C2F4A0A3189008A589A612A49FB
S1130BB02A4B1B7A1A1C2C4B0A329200D3589822C7
S1130BC08B5027E0244B254A527A111C254A1431B4
S1130BD089008A589A612049204B5B7A1A1C224B5F
S1130BE014329200D35898228B5013E01A4B1B4AAC
S1130BF0927A111C1B4A1E3189008A589A6116493F
S1130C00164B9B7A1A1C184B1E329200D35898220A
S1130C108B50C0460F4B10229A730E4B9B7BDBB25A
S1130C205B091A1C01231340DBB2002B10D00A4BC2
S1130C300A4A1279111C032211400C4A89008A586D
S1130C409A610B4B98470B4B9847024B20229A739F
S1130C50BD4680BD002000420044004174050020D0
S1130C6000321F00A021000040220000902100005B
S1130C70C50D00000501000080B500AF024B181C33
S1130C80024B9847BD4680BD82050020011A000032
S1130C9080B500AF414B00221A71404B00229A707C
S1130CA03E4B00225A703D4B00221A703B4B0022EF
S1130CB05A703A4B01225A71384B00229A81384BB0
S1130CC0384A5A80384B384A126A802149000A430C
S1130CD01A62364B364A1A80344B08221A76C046BA
S1130CE0324BDB7BDBB2DBB25BB2002BF8DB2F4B8E
S1130CF010225A76C0462D4BDB7BDBB2DBB25BB2F3
S1130D00002BF8DB294B7F221A75C046274BDB7B6F
S1130D10DBB2DBB25BB2002BF8DB244B01221A748A
S1130D20C046224BDB7BDBB2DBB25BB2002BF8DBD1
S1130D301E4B01221A71C0461C4BDB7BDBB2DBB2BB
S1130D405BB2002BF8DB194B00229A71C046174B9B
S1130D50DB7BDBB2DBB25BB2002BF8DB154B181C80
S1130D60154B98470D200221144B98470D20144B26
S1130D7098470E200321114B98470E20104B98479B
S1130D800A4B31229A73094B31225A73074B1A8842
S1130D9002210A431A80BD4680BDC0467405002066
S1130DA0000C0040134300000004004000200042F7
S1130DB0040800007A05002081190000350A0000AB
S1130DC0D909000090B583B000AF9A4B1A6A80230A
S1130DD09B031A407B1D51424A411A70964B5B7922
S1130DE001225340DBB2002B05D07B1D1B78002B66
S1130DF001D0012200E000223B1D1A701A78012163
S1130E000A401A708C4B7A1D12785A71FB1D00220D
S1130E101A70884B1B6A012213401BD1864B1B7826
S1130E20042B05D8844B1B780133DAB2824B1A7039
S1130E30814B1B78052B1ED17F4B5B7801225340DD
S1130E40DBB2002B17D0FB1D01221A707A4B012252
S1130E505A7010E0784B1B78002B05D0764B1B782A
S1130E60013BDAB2744B1A70734B1B78002B02D11E
S1130E70714B00225A70BB1D00221A706D4B1B6A05
S1130E80022213401BD16C4B9B78042B05D86A4B70
S1130E909B780133DAB2684B9A70674B9B78052BC9
S1130EA01ED1654BDB7801225340DBB2002B17D0F7
S1130EB0BB1D01221A70604B0122DA7010E05E4BF8
S1130EC09B78002B05D05C4B9B78013BDAB25A4BE4
S1130ED09A70594B9B78002B02D1574B0022DA7041
S1130EE0554BDB78002B17D0534B5B78002B13D07A
S1130EF0514B00229A71504B0022DA714E4B002262
S1130F001A724D4B00225A724B4B00229A724A4B72
S1130F10A022D2009A812AE0FB1D1B78002B0DD061
S1130F20454BDB790133DAB2434BDA71424B002291
S1130F309A71414BA022D2009A8118E0BB1D1B7804
S1130F40002B0AD03C4B5B7A0133DAB23A4B5A722B
S1130F50394BA022D2009A8109E03B1D1B78002B5B
S1130F6005D0354B9B790133DAB2334B9A71324B4E
S1130F709B793B2B08D9304B00229A712E4BDB799D
S1130F800133DAB22C4BDA712B4BDB79092B08D9FC
S1130F90294B0022DA71284B1B7A0133DAB2264B33
S1130FA01A72254B1B7A052B08D9234B00221A727F
S1130FB0214B5B7A0133DAB21F4B5A721E4B5B7AB8
S1130FC0092B08D91C4B00225A721B4B9B7A013304
S1130FD0DAB2194B9A72184B9B7A012B09D9164B2A
S1130FE05B7A032B05D9144B00225A72124B002250
S1130FF09A72114B9B89002B18D00F4B9B89013B94
S11310009AB20D4B9A810C4B9B89002B0ED10A4A44
S11310100E20094B062112185B180524101C191CFC
S1131020221C064B98470E20054B9847BD4603B03B
S113103090BDC0460044004174050020151B00000B
S1131040050A000080B500AF1E4B1A6A1E490A400B
S11310501A621C4B1A6A80210A431A62194B1A6AD3
S113106040218A431A62194ABB23D15C0F200140F4
S1131070081C70210143D154144AD723D15C0120A8
S11310800143D154124B01229A60114B114A5A6008
S11310900C4B114A12689209120410490A439A61CE
S11310A0C046084BDB689B081A1C01231340DBB2C3
S11310B0002BF6D0064B03229A60054B084A5A606F
S11310C0BD4680BD00080040FFFCFFFF0044004116
S11310D0000C004001012100246080004602000051
S11310E00304210080B500AF1B4B1C4A1A611A4B44
S11310F01B4A1A60184A57230221D154164A562310
S11311000221D154144A55230221D154124A4F23A7
S11311100621D154104A4D230021D1540E4A4523AF
S11311200621D1540C4A44230621D1540A4A4123AE
S11311300621D154084A40230621D154064A90235B
S11311400021D150044A80230649D150024AD723B2
S11311500221D154BD4680BD00440041032000005B
S1131160CD3F1F3FFFBF7FFF80B500AF0B4B9847BC
S11311700B4B98470B4B9847FA239B00181C0A4BC0
S113118098470A4B98470A4B98470A4B98470A4B8B
S113119098470023181CBD4680BDC046451000007A
S11311A0E51000003D06000021090000591500006B
S11311B095020000910C0000BD11000080B594B0B0
S11311C000AFC54B181CC54B9847C54B181CC34BE7
S11311D09847C44B181CC14B9847C34B181CBF4BB2
S11311E09847C24B181CBD4B9847C14B181CBB4BAE
S11311F09847C04B181CB94B9847BF4B181CB74BAA
S11312009847BE4B181CB54B9847BD4B181CB34BA5
S11312109847BC4B181CB14B98470C23FB18181C5F
S11312203F21B94B9847031E00D153E1B74B181C1B
S1131230AA4B98470C23FB181B78313B462BC0D88C
S11312409A00B34BD3181B689F46B24B181CA34B90
S113125098470C23FB18181C0221AB4B9847031E1C
S11312600BD00C23FB18181C00210A22AA4B984708
S1131270031CDAB2A94B9A722CE12BE1A54B181C82
S1131280964B98470C23FB18181C02219E4B984739
S1131290031E0BD00C23FB18181C00210A229E4BA2
S11312A09847031CDAB29D4B5A7213E112E1994B31
S11312B0181C8A4B98470C23FB18181C0221924BCC
S11312C09847031E0BD00C23FB18181C00210A227C
S11312D0914B9847031CDAB2904B1A72FAE0F9E08A
S11312E08C4B181C7D4B98470C23FB18181C0221AF
S11312F0854B9847031E0BD00C23FB18181C0021A8
S11313000A22854B9847031CDAB2844BDA71E1E078
S1131310E0E0834B181C714B98470C23FB18181CF6
S11313200221794B9847031E10D00C23FB181B781D
S1131330302B02D100207B4B98470C23FB181B78E1
S1131340312B03D10120774B9847C3E0C2E0764BA1
S11313509847031C1A1C01235340DBB2002B04D012
S1131360724B181C5D4B9847B4E03B1D181C704B26
S11313709847031E11D07B681A1C0C23FB18101C01
S1131380191C0A226B4B98470C23FB18181C534B4F
S113139098475E4B181C514B98470C23FB18181C9C
S11313A0654B9847031E01D0C04693E0DDE7634BCD
S11313B0181C4A4B98470C23FB18181C0221524B4B
S11313C09847031E01D1C04684E00C23FB181B7808
S11313D0312B03D15A4B40229A6107E00C23FB18AE
S11313E01B78302B02D1564B40225A61DFE7554B14
S11313F0181C3A4B98470C23FB18181C3F21424BEE
S11314009847031E00D165E00C23FB18181C00212B
S113141010224D4B9847021C4F23FB181A704F2380
S1131420FB181A780B23FB18101C191C0122474BBC
S11314309847474B181C294B98470B23FB181B78DC
S11314401A1C0C23FB18101C191C1022394B98472A
S11314500C23FB18181C214B98473BE0394B181CF4
S11314601E4B98470C23FB18181C3F21264B98470A
S1131470031E00D12EE00C23FB18181C002110229F
S1131480314B9847021C4F23FB181A70304B181C21
S1131490124B98470C23FB18181C3F211A4B9847F2
S11314A0031E00D116E00C23FB18181C0021102287
S11314B0254B9847031CDAB20B23FB181A704F23F1
S11314C0FB181A780B23FB18101C191C0122214B42
S11314D09847C04675E6C046E0220000F1070000C8
S11314E0042300001C2300003C23000064230000AC
S11314F07C23000094230000A8230000BC230000E8
S1131500D0230000E42300001D080000EC230000A9
S113151050240000F0230000951E000074050020F4
S1131520F82300001104000021020000142400002C
S11315303D0200000D1B00002907000024240000C8
S11315400044004138240000FD1C00002517000061
S1131550442400006518000080B582B000AF654BDC
S1131560654A5A80634B654A5A80654B644A126ADD
S113157020210A431A62634A3B23D15C0F200140B5
S1131580081C20210143D1545E4A3B23D15C0F2027
S11315908143081C02210143D1545A4A5723D15C88
S11315A001200143D154574A5623D15C0120014301
S11315B0D154554B554A5A81C046534B1B8A9BB252
S11315C0DB0BDBB2002BF8D14F4B514A1A60C046FB
S11315D04D4B1B8A9BB2DB0BDBB2002BF8D14A4B81
S11315E000225A60C046484B1B8A9BB2DB0BDBB21D
S11315F0002BF8D1444B1A8A30218A43111C102243
S11316000A431A82C046404B1B8A9BB2DB0BDBB2F7
S1131610002BF8D13C4B1A6802210A431A60C046D9
S1131620394B1B8A9BB2DB0BDBB2002BF8D1364B58
S11316301A8A30218A43111C10220A431A82C04696
S1131640314B1B8A9BB2DB0BDBB2002BF8D1314B45
S11316500020191C3022304B9847FB1D2D4A127A6A
S11316601A702C4B5A221A722A4B82225A72294B14
S11316701B229A72274B00221A74264B00225A749A
S1131680244B00229A74234B0022DA74214B00224B
S11316901A75204B00225A751E4B202200219954A2
S11316A01E4B0720191C2A221D4B9847FB1D1B7833
S11316B0012213401AD0174B00221A70154B002236
S11316C05A70144B00229A70124B0122DA70114B9B
S11316D001221A710F4B16225A710E4B00229A7175
S11316E00C4B0020191C07220D4B9847BD4602B035
S11316F080BDC046000C0040104000000C420000B9
S11317000004004000440041001400420F0F000098
S11317101400300088050020251700008F050020E4
S11317206518000080B582B000AF3960111CFB1D44
S1131730021C1A70BB1D0A1C1A70BB1D1B78002BDF
S113174001D1012387E0464BDE221A75C046444B83
S11317501B8A9BB2DB0BDBB2002BF8D1C046404B9B
S11317609B7B01221340DBB2002BF8D03C4B1B8A3D
S11317709BB21A1C0723134000D05FE0384AFB1DBC
S11317801B781376C046364B1B8A9BB2DB0BDBB24D
S1131790002BF8D1C046324B9B7B01221340DBB2B5
S11317A0002BF8D02E4B1B8A9BB21A1C0723134024
S11317B000D043E02A4BDF221A75C046284B1B8A0F
S11317C09BB2DB0BDBB2002BF8D12EE0C046244BDE
S11317D09B7BDBB25B081A1C01231340DBB2002B9A
S11317E0F5D03B685A1C3A601D4A127ED2B21A7078
S11317F0BB1D1B78002B0CD0194B802292025A601F
S1131800C046174B1B8A9BB2DB0BDBB2002BF8D113
S11318100BE0134BE022D2025A60C046104B1B8AE5
S11318209BB2DB0BDBB2002BF8D1BB1D1B78BA1DBE
S1131830591E1170002BC9D101230CE0084BE02282
S1131840D2025A60C046064B1B8A9BB2DB0BDBB24A
S1131850002BF8D10023181CBD4602B080BDC04641
S11318600014004280B584B000AF3960111CFB1D28
S1131870021C1A70BB1D0A1C1A700F23FB180122CC
S11318801A703E4BDE221A75C0463C4B1B8A9BB233
S1131890DB0BDBB2002BF8D1C046384B9B7B01221B
S11318A01340DBB2002BF8D0344B1B8A9BB21A1CBA
S11318B00723134004D00F23FB1800221A7049E0B9
S11318C02E4AFB1D1B781376C0462C4B1B8A9BB2F9
S11318D0DB0BDBB2002BF8D1C046284B9B7B0122EB
S11318E01340DBB2002BF8D0244B1B8A9BB21A1C8A
S11318F00723134004D00F23FB1800221A7029E099
S113190021E01E493B685A1C3A601B780B76C0469E
S11319101A4B1B8A9BB2DB0BDBB2002BF8D1C046FF
S1131920164B9B7B01221340DBB2002BF8D0134BE8
S11319301B8A9BB21A1C0723134004D00F23FB18E5
S113194000221A7006E0BB1D1B78BA1D591E1170C7
S1131950002BD6D1094BC02292025A60C046074BD5
S11319601B8A9BB2DB0BDBB2002BF8D10F23FB18D5
S11319701B78181CBD4604B080BDC046001400424C
S113198080B582B000AF78601B4B0020191C072281
S11319901A4B9847184B1B781A1C702313401B11C1
S11319A0DBB21A1C9200D318DB18DAB2124B1B7884
S11319B00F210B40DBB2D318DAB27B681A700E4BDE
S11319C05B780F221340DAB27B685A700A4B5B785B
S11319D01B09DAB27B689A70074B9B780F2213407D
S11319E0DAB27B68DA70044B9B781B09DAB27B6845
S11319F01A71BD4602B080BD88050020251700007D
S1131A0080B584B000AF78600F23FB187A68127831
S1131A101A701E4B00221A700CE01C4B1B781033FA
S1131A20DAB21A4B1A700F23FB180F22BA18127865
S1131A300A3A1A700F23FB181B78092BEDD8134BA5
S1131A401A780F23FB181B78D318DAB20F4B1A70CD
S1131A507B689B781B01DAB27B685B78D318DAB2B7
S1131A600A4B5A707B681B791B01DAB27B68DB78FE
S1131A70D318DAB2054B9A70044B0020191C0722C4
S1131A80034B9847BD4604B080BDC046880500207E
S1131A906518000070B50D4E0D4D0024AD1BAD1042
S1131AA005D0A300F35801349847A542F9D100F0BA
S1131AB0F7FD084E084D0024AD1BAD1005D0A30062
S1131AC0F35801349847A542F9D170BDAC26000003
S1131AD0AC260000AC260000B4260000931E10B50E
S1131AE0222B0FD80A2A06D000230C1CC91800F098
S1131AF0DFF9201C10BD0028F6DA2D2340420B70BC
S1131B002C3BF2E7002300200B70F3E708B5FFF746
S1131B10E5FF08BD70B50F2A32D9041C0C430B1C19
S1131B20A40731D1151C041C103D2D0901352D01CC
S1131B3049191E6826605E6866609E68A660DE6855
S1131B401033E66010349942F3D10F234519134042
S1131B50032B1BD91C1F0023A4080134A400CE5856
S1131B60EE500433A342FAD1ED18C91803231A40E6
S1131B7005D00023CC5CEC5401339342FAD170BD00
S1131B80051C002AF5D1FAE7051CF2E71A1CF8E750
S1131B90F0B54D4656465F464446F0B41E1C554BC0
S1131BA085B002911D6803900B1C9146082100E04A
S1131BB03B1C1C785F1C2A1952781142F8D12D2C39
S1131BC069D0002290462B2C00D173E0002E04D063
S1131BD0102E00D171E0321C05E0302C00D17DE0E4
S1131BE00A230A261A1C444B111C4344181C92460F
S1131BF09B4600F0C1FA58460191514600F036FA6E
S1131C0004228446D3469246321C3B1C2E1C0020E0
S1131C106546002194460DE0303CA44518DD421C85
S1131C2006D0A9422ED82AD05A4601205143611821
S1131C301C7801335746321952781742ECD10327E6
S1131C403A4005D0012A20D05722A41AA445E6DC44
S1131C50421C25D04246524251400A1C4946424445
S1131C60002944D0002813D1101C029B4A4613605B
S1131C7005B03CBC90469946A246AB46F0BD019ADD
S1131C809442D1DD01204042D2E73722A41ADDE795
S1131C90101C013BEAE79F1C5C780123984695E7FA
S1131CA02222039914480A604A464044002ADFD09D
S1131CB0013BDBE79F1C5C7888E710231A1C302C5F
S1131CC000D090E73B7810329343582B00D082E742
S1131CD010237C781A1C0237102684E720223B78D4
S1131CE09343582BF4D0082308261A1C7BE7101CB6
S1131CF0BEE7C0462C040020FFFFFF7F38B5051C5B
S1131D000C1C131C034A291C1068221CFFF740FFFB
S1131D1038BDC04628040020F0B54D46564644461A
S1131D205F46F0B41E1C574B85B088461D6803906F
S1131D300B1C9146082100E0031C1C78581C2A192E
S1131D4052781142F8D182462D2C6AD00022029298
S1131D502B2C6CD0002E0FD0102E6CD00120311CF7
S1131D604042019600F082F9071C0120311C4042D8
S1131D7000F002FA8C4607E0302C64D005230A26D2
S1131D809C46414F05330193042253469246013A3F
S1131D9000200021934600960EE0009A303CA242B7
S1131DA019DD421C06D0B9422FD82CD00120019A4B
S1131DB0514361181C78013356462A195278164249
S1131DC0EBD15E46324006D0012A21D05722A41A14
S1131DD0009AA242E5DC00281DDB029CA446624274
S1131DE0514061444A46002A05D04246002800D0AA
S1131DF05A1E4B461A60081C05B03CBC90469946D6
S1131E00A246AB46F0BD6445D0DD01204042D1E797
S1131E103722A41ADCE7222203990A6001214942ED
S1131E20E0E79A1C5C7801239246029392E79A1C9D
S1131E3092465C788EE7302C12D00F239C460133F7
S1131E40124F0193A0E7534620221B789343582B4B
S1131E500CD007239C4601330D4F0193082693E7CA
S1131E60534620221B789343582BE6D153465C7883
S1131E7002239C460D33E2449C460133034F0193F5
S1131E80102681E72C04002099999919FFFFFF0F70
S1131E90FFFFFF1F38B5051C0C1C131C034A291C2B
S1131EA01068221CFFF738FF38BDC0462804002004
S1131EB0F0B5574645464E46E0B48AB090466A4669
S1131EC01D4B0D1C061C13CB13C213CB13C213CB17
S1131ED013C21B78EA4613704346023B2F1C0024AE
S1131EE0222B01D924E04C46631C301C4146994600
S1131EF000F042F953465B5C301C3B70414600F0F5
S1131F00B5F80137061EEED14B46E8540023002CE9
S1131F1007D0EA5C295DE9542A550133013CA34208
S1131F20F7DB281C0AB01CBC90469946A246F0BDBB
S1131F302C700020F6E7C0467425000008B5034B5A
S1131F40002B02D0024800F005F808BD0000000094
S1131F50651F000008B5011C00220020002300F0CA
S1131F601BF808BD38B5094B094CE41AA41009D074
S1131F70084AA518AD00ED182B68013C9847043DAC
S1131F80002CF9D100F096FB38BDC046C0260000F5
S1131F90C4260000FFFFFF3FF8B544465F4656469F
S1131FA04D469B462F4BF0B41C68A4235B00051CD4
S1131FB0E0580E1C904600284BD043681F2B0DDCC4
S1131FC05C1C002D21D102339B0044601E50002074
S1131FD03CBC90469946A246AB46F8BD224B002B2A
S1131FE03CD0C820400000E000BF002836D0A42226
S1131FF000235200A15843600160A0504032835036
S1132000043283500124002DDDD09A00914681448E
S1132010424688214F467A50C4225200904680445A
S113202042468739994012688A460A439446424692
S113203061461160842249465F4652008F50022D4A
S1132040C1D1021C55468D32FF3211680D43156013
S1132050B9E7201C4D30FF30E050AEE7012040428C
S1132060B6E7C046702500000000000000224308C7
S11320708B4274D303098B425FD3030A8B4244D34C
S1132080030B8B4228D3030C8B420DD3FF2209028E
S113209012BA030C8B4202D31212090265D0030B4D
S11320A08B4219D300E0090AC30B8B4201D3CB0343
S11320B0C01A5241830B8B4201D38B03C01A524185
S11320C0430B8B4201D34B03C01A5241030B8B4287
S11320D001D30B03C01A5241C30A8B4201D3CB0272
S11320E0C01A5241830A8B4201D38B02C01A524157
S11320F0430A8B4201D34B02C01A5241030A8B425A
S113210001D30B02C01A5241CDD2C3098B4201D371
S1132110CB01C01A524183098B4201D38B01C01AEF
S1132120524143098B4201D34B01C01A5241030966
S11321308B4201D30B01C01A5241C3088B4201D315
S1132140CB00C01A524183088B4201D38B00C01AC2
S1132150524143088B4201D34B00C01A5241411AE9
S113216000D20146524110467047FFE701B50020F6
S113217000F00CF802BDC0460029F7D003B5FFF704
S113218075FF0EBC4243891A1847C0467047C046C3
S113219000040000000800000001000080000000AE
S11321A00000000000000000001000000002000019
S11321B000001000000008000000040000000200FD
S11321C000200000000001000010000000000000DA
S11321D000000000000010000002000000000200E7
S11321E000000400000008000000010000200000BE
S11321F000000000000000000010000000020000C9
S113220000001000000008000000040000000200AC
S11322100020000000000100001000000000000089
S11322200000000000001000000200000000020096
S1132230000004000000080000000100002000006D
S1132240000400000008000000000000000000007E
S1132250000000000000000000000000000000007A
S11322600000000000000000000000000008000062
S11322700004000000000000000000000000000056
S1132280000000000000000000000000000000004A
S1132290000400000008000000000000000000002E
S11322A0000000000000000000000000000000002A
S11322B00000000000000000000000000008000012
S11322C00004000000000000000000000000000006
S11322D000000000000000000000000000000000FA
S11322E00D0A0D0A3D3D207468494E2D3138206495
S11322F065627567206D656E75203D3D0D0A0D0A9A
S113230000000000432920546573742063616C69E4
S113231062726174696F6E0D0A00000053292053C4
S1132320656C6563742063616C6962726174696F62
S11323306E20736F757263650D0A00004529204590
S11323406E61626C652F64697361626C65204856C6
S11323502044432F444320636F6E76657274657224
S11323600D0A000052292052656164205254432012
S113237072656769737465720D0A000057292057E6
S11323807269746520525443207265676973746579
S1132390720D0A00312920536574203130482074AD
S11323A07562650D0A0000003229205365742031DE
S11323B04820747562650D0A00000000332920531B
S11323C065742031304D20747562650D0A0000007B
S11323D034292053657420314D20747562650D0ACB
S11323E0000000000D0A3E3E200000000D0A00001F
S11323F044696769743A2000536F757263653F20BE
S1132400313D6578742C20303D4F5343384D3A208C
S11324100000000043616C206E6F7420726561647B
S1132420792E00000D0A456E61626C653F205B31B8
S11324302C305D3A20000000416464726573733A85
S1132440203078000D0A446174613A20307800002D
S11324504A1200007C120000AE120000E0120000DC
S1132460C2110000C2110000C2110000C21100001C
S1132470C2110000C2110000C2110000C21100000C
S1132480C2110000C2110000C2110000C2110000FC
S1132490C2110000C21100004E130000C21100005E
S11324A0AE130000C2110000C2110000C2110000EE
S11324B0C2110000C2110000C2110000C2110000CC
S11324C0C2110000C2110000C2110000C2110000BC
S11324D0C2110000EE13000012130000C21100002C
S11324E0C2110000C21100005C140000C2110000FF
S11324F0C2110000C2110000C2110000C21100008C
S1132500C2110000C2110000C2110000C21100007B
S1132510C2110000C21100004E130000C2110000DD
S1132520AE130000C2110000C2110000C21100006D
S1132530C2110000C2110000C2110000C21100004B
S1132540C2110000C2110000C2110000C21100003B
S1132550C2110000EE13000012130000C2110000AB
S1132560C2110000C21100005C140000430000000E
S11325700000002030313233343536373839616267
S1132580636465666768696A6B6C6D6E6F7071729F
S1132590737475767778797A000000000020202023
S11325A020202020202028282828282020202020FF
S11325B020202020202020202020202020881010CF
S11325C0101010101010101010101010100404042B
S11325D004040404040404101010101010104141E9
S11325E041414141010101010101010101010101D7
S11325F001010101010101011010101010104242EB
S113260042424242020202020202020202020202A6
S11326100202020202020202101010102000000046
S113262000000000000000000000000000000000A6
S11326300000000000000000000000000000000096
S11326400000000000000000000000000000000086
S11326500000000000000000000000000000000076
S11326600000000000000000000000000000000066
S11326700000000000000000000000000000000056
S11326800000000000000000000000000000000046
S11326900000000000000000000000000000000036
S11326A0F8B5C046F8BC08BC9E4670473D1F000004
S11326B0CD000000F8B5C046F8BC08BC9E46704783
S10726C0A50000006D
S11326C400000000EC02002054030020BC0300209E
S11326D400000000000000000000000000000000F2
S11326E400000000000000000000000000000000E2
S11326F4000000006C250000000000000000000041
S113270400000000000000000000000000000000C1
S113271400000000000000000000000000000000B1
S113272400000000000000000000000000000000A1
S11327340000000000000000000000000000000091
S11327440000000000000000000000000000000081
S11327540000000000000000000000000000000071
S11327640000000000000000010000000000000060
S11327740E33CDAB34126DE6ECDE05000B00000025
S11327840000000000000000000000000000000041
S11327940000000000000000000000000000000031
S11327A40000000000000000000000000000000021
S11327B40000000000000000000000000000000011
S1132AE40000000000000000000000209C250000FD
S9030000FC
